:020000040800F2
:1000000010230020E52E0008F12D0008F32D000834
:10001000F52D0008F72D0008F92D0008000000005C
:10002000000000000000000000000000FB2D0008A0
:10003000FD2D000800000000FF2D0008012E000823
:10004000392F00083D2F0008412F0008452F0008D8
:10005000492F00084D2F0008512F0008552F000888
:10006000592F00085D2F0008612F0008652F000838
:10007000692F00086D2F0008712F0008752F0008E8
:10008000792F00087D2F0008812F00080B2E000813
:10009000032E00088D2F0008912F0008952F0008CF
:1000A000992F00089D2F0008A12F0008A52F0008F8
:1000B000A92F0008AD2F0008B12F0008B52F0008A8
:1000C000B92F0008BD2F0008C12F0008C52F000858
:1000D000C92F0008CD2F0008D12F0008D52F000808
:1000E000D92F0008DD2F0008E12F0008E52F0008B8
:1000F000E92F0008ED2F0008F12F0008F52F000868
:10010000F92F0008FD2F0008013000080530000815
:10011000093000080D3000081130000815300008C3
:10012000193000081D300008213000082530000873
:1001300080B580B2002806D10120DFF82C1A0968AA
:100140000882002008E0DFF8240A00680068804781
:10015000DFF8140A00680A3002BD80B5DFF8081A1B
:10016000DFF80C0A40780A68D278904212D3086807
:10017000807800280ED10868808800280AD1086895
:10018000C07809688872DFF8E40900684068804731
:10019000002000E0022002BD80B580B2002806D118
:1001A0000120DFF8C41909680882002008E0DFF8A0
:1001B000BC09006880688047DFF8AC0900680C3033
:1001C00002BD10B5DFF8A0492068C17820684079E9
:1001D000DFF8A0291268926990472168897A00297E
:1001E0001FD00100C9B2002907D12168097900296F
:1001F00003D121688978002901D0022012E0C0B221
:1002000000280ED1DFF864090068C06880472068C4
:1002100040792168C8722068C0782168087300207E
:1002200000E0022010BD10B580B2002806D10220E7
:10023000DFF8341909680882002023E0DFF8384924
:1002400000202080DFF820090168097811F07F0F75
:100250001ED10068407A810604D5217851F0020150
:10026000217003E0217811F0FD01217040060AD5CC
:10027000207850F001002070DFF8F0080068006975
:100280008047200010BD207810F0FE002070F3E7BA
:100290000168097811F07F01012901D12000F1E7FF
:1002A0000168097811F07F01022922D100684179A3
:1002B00011F00F0009060DD5DFF8C018C0B251F8D3
:1002C000200010F030001028D6D1207850F0010026
:1002D0002070D1E7DFF8A418C0B251F8200010F464
:1002E0004050B0F5805FC7D1207850F001002070F9
:1002F000C2E70020C6E738B5DFF86C180868007858
:1003000010F07F00002807D10868407A10F0DF0065
:1003100009684872002084E0022840F08180086863
:100320004088002803D108680079002801D0022005
:1003300077E0DFF83C280868437933F080052C002B
:1003400008684079000606D5DFF8300850F8240028
:1003500010F0300005E0DFF8240850F8240010F415
:1003600040501278954205D2002803D00868807A60
:10037000002801D1022054E0180611D5DFF8FC074F
:1003800050F8240010F03000102842D12000C0B2F4
:1003900000F0DBFC30212000C0B200F05FFC38E050
:1003A000DFF8D85755F8240010F44050B0F5805FBE
:1003B0002FD1002C19D1DFF8C80790F82C1089B282
:1003C0002000C0B200F024FD55F824104BF68F70C9
:1003D000014091F4805191F4005141F4004151F0F9
:1003E000800189B245F8241013E02000C0B200F06B
:1003F00095FC55F824104BF68F70014091F4805114
:1004000091F4005141F4004151F0800189B245F866
:100410002410DFF85807006840698047002000E09A
:10042000022032BD10B5DFF840472068437933F031
:10043000800220684079000606D5DFF8400750F8B2
:10044000221011F0300105E0DFF8300750F82210DB
:1004500011F44051DFF818070078824209D2206871
:100460004088002805D1002903D02068807A002820
:1004700001D1022028E0180610D5DFF8001751F846
:10048000223048F6BF70034093F0100343F400435A
:1004900053F080039BB241F822300FE0DFF8DC1606
:1004A00051F822304BF68F70034093F4805343F49D
:1004B000004353F080039BB241F82230DFF8AC06D2
:1004C000006880698047002010BD80B5DFF898067D
:1004D0000168497A51F0200100684172DFF88C060A
:1004E0000068C0698047002002BDDFF87C361A68CA
:1004F000528A80B2002805D18888821A1868028240
:10050000002001E0086810447047F8B5DFF858464D
:10051000206810F110052988A86800281AD0002941
:1005200018D0AF88B94200D20F00380080B2A96855
:10053000884706002888C01B28806888381868808B
:10054000002000F049FC3A0092B2010089B230006C
:1005500000F0DDFC288800280CD04FF44050DFF874
:10056000241608800021002000F044FC3020DFF831
:10057000181608802888A988884203D30320216898
:1005800008721AE02888002803D005202168087224
:1005900013E02888002810D1062021680872002066
:1005A000DFF8E815096889B2DFF8E42512EB4102AB
:1005B00010603020DFF8D0150880F1BD2DE9F04142
:1005C000DFF8A445206810F1100630882168097A08
:1005D00000281ED104291CD1DFF8B80501780129B3
:1005E00011D10021DFF8A425126892B2DFF8A035FE
:1005F00013EB420319603021DFF88C2511800425AC
:100600000021017004E007251020DFF87C15088028
:100610002BE0B788874201D3042500E00225B842C9
:1006200000D20700380080B2B168884780460020B9
:1006300000F0C4FB3A0092B2010089B2404600F0DB
:100640004FFC390089B2002000F0D4FB3088C01B79
:10065000308070883F1877803020DFF82C150880B4
:100660004FF44050DFF81C15088020680572BDE883
:10067000F08138B50220DFF8F04421684D78216818
:10068000097811F07F0F3CD1092D02D1FFF765FDEC
:1006900053E0052D13D12068C07880280BDA20683C
:1006A0008078002807D120688088002803D120683E
:1006B000807A002801D0082064E000203DE0032D6E
:1006C0000CD12068C078012806D1206880880028D5
:1006D00002D1FFF7FAFE30E002202EE0012D2CD1EE
:1006E0002068C07801280AD120688088002806D1B7
:1006F0002068407A800602D5FFF7FDFD1DE002204C
:100700001BE02168097811F07F01012904D10B2D2C
:1007100013D1FFF756FD10E02168097811F07F0131
:10072000022909D1012D02D1FFF7E5FD05E0032DD6
:1007300003D1FFF777FE00E002200100C9B20029D3
:100740000CD02800C0B2DFF82C140968496988472A
:100750000100C9B2032901D1092013E0C0B2002869
:1007600001D008200EE006200021DFF820241268C6
:1007700092B2DFF81C3413EB420319603021DFF82A
:10078000082411802168087231BD7CB5DFF8D84398
:100790002068417800260025062922D120680078AB
:1007A00010F07F0F40F0A280206880780100C9B26D
:1007B000012904D1DFF8BC030068C66996E0010096
:1007C000C9B2022904D1DFF8AC030068066A8DE0E3
:1007D000C0B2032840F08A80DFF898030068466AB8
:1007E00084E0002957D120684088002853D1206830
:1007F000C08802284FD12068007900284BD120689A
:10080000007810F07F0F06D120688088002802D180
:10081000DFF884636AE02068007810F07F00012828
:1008200010D1002120684079DFF8482312689269CE
:10083000904700285AD12068807A002856D0DFF8E7
:10084000586353E02068007810F07F0002284DD1F3
:100850002068427912F00F022068417911F070018E
:1008600020684079000606D5DFF8100350F8220012
:1008700010F0300005E0DFF8040350F8220010F417
:100880004050BB4B1B789A4230D200292ED1002811
:100890002CD0C14E2AE0082906D12068007810F03B
:1008A0007F0F23D1BD4E21E00A291FD12068007897
:1008B00010F07F00012819D12068807A002815D017
:1008C00020684088002811D12068007900280DD1C7
:1008D0002068C088012809D1002120684079A54AF4
:1008E000126892699047002800D1AD4E3000002870
:1008F00010D020684582206886610020B047002023
:100900002168098A4FF6FF72914211D109202168AE
:10091000087259E020684078964909680969884753
:100920000100C9B20329EBD10920216808724BE00C
:10093000C0B2022803D02068008A002803D1082012
:100940002168087240E020680078000635D52068EC
:10095000C088009000982168098A884203D20098D4
:100960002168088220E02068008A2168C9888842BE
:100970001AD280492068008A0A6892F82C2092B224
:10098000904203D20020834908700DE02068008A5D
:10099000096891F82C1090FBF1F201FB120000287D
:1009A00002D101207B4908707248006890F82C0041
:1009B00021688882FFF702FE06E0032021680872A2
:1009C0004FF440506F49088073BD70B501246F48E3
:1009D000006880B2734911EB4001088840007249F9
:1009E0000844614D2968097A092921D001782A68CB
:1009F0001170401C01782A685170401C210089B296
:100A000000EB4106308800F045FAB11C2A6850809E
:100A1000200080B201EB4006308800F03BFAB11CA8
:100A20002A689080A4B201EB440000882968C8803D
:100A30000120296808722868C088002802D1FFF7C1
:100A400018FE01E0FFF7A1FE00F04EF870BD10B5F2
:100A5000454C2068007A022801D0042804D1FFF711
:100A6000ADFD2068007A19E0062816D1206840788C
:100A700005280CD12068007810F07F0F07D120687E
:100A8000C07800F04EF839480068006A804739485D
:100A9000006880688047082000E00820216808720C
:100AA00000F022F810BD10B52F4C2068007A022803
:100AB00001D0042801D1082011E0032801D0052825
:100AC00004D1FFF722FD2068007A08E0072805D14D
:100AD00028480068C0688047082000E00820216896
:100AE000087200F001F810BD80B5254890F82C1070
:100AF00089B2002000F08CF91B480168097A0829A6
:100B000006D14FF480511F4A118010211E4A1180D6
:100B10000068007A092801D1012000E00020C0B25D
:100B200002BD30B412490B78002213E0134C1100BF
:100B3000C9B254F8215048F68F710D401100C9B266
:100B40000D4345F4004555F080051100C9B244F845
:100B50002150521C9A42E9D3C0B250F08000134990
:100B6000086030BC70470000EC1A0020F41A002026
:100B7000B4010020F01A0020021B0020005C00409D
:100B8000E0000020061B0020081B0020505C0040F5
:100B9000046000400E1B00202702000831010008FD
:100BA0009901000808600040006000404C5C004073
:100BB0007047F0B40246106895681318506803EB4C
:100BC0005004C0071DD54D441BE013F8017B05F808
:100BD000017B491EF9D1A0B1B60813F8011B06F03C
:100BE0000306032E08BF13F8016B01EB06214942EF
:100BF000801C294405D011F8016B05F8016B401EDB
:100C0000F9D1A3420ED013F8016B16F0030104BF13
:100C100013F8011BC91C30090F28DAD113F8010B96
:100C20000F30D6E7F0BC02F10C0070474FF6F871B8
:100C30000840DFF848120860704710B4DFF840320F
:100C40000200D2B253F8224048F68F1214402143DA
:100C500089B2C0B243F8201010BC704710B4DFF85E
:100C600020420200D2B254F8223048F6BF7213403C
:100C7000CA0601D593F01003890601D593F020032D
:100C800043F4004353F080039BB2C0B244F82030D9
:100C900010BC704710B4DFF8E8410200D2B254F83B
:100CA00022304BF68F721340CA0401D593F480535F
:100CB000890401D593F4005343F4004353F08003B7
:100CC0009BB2C0B244F8203010BC7047DFF8B0319E
:100CD0000100C9B253F821204BF68F710A4092F4FB
:100CE000805292F4005242F4004252F0800292B2DA
:100CF000C0B243F820207047DFF884210100C9B258
:100D000052F8213048F68F610B4043F4004353F012
:100D100080039BB2C0B242F820307047DFF86021F8
:100D20000100C9B252F8211049040DD50100C9B221
:100D300052F8213048F68F710B4043F4404353F092
:100D40008003C0B242F820307047DFF83421010040
:100D5000C9B252F8211049060DD50100C9B252F8A6
:100D6000213048F68F710B4043F4004353F0C00329
:100D7000C0B242F820307047DFF80021126892B20A
:100D8000C0B212EBC002DFF8FC0010EB420089B2E7
:100D9000490889B2490001607047DFF8E020126815
:100DA00092B2C0B212EBC002DFF8DC0010EB4200DE
:100DB00089B2490889B2490001607047DFF8BC1068
:100DC000096889B2C0B211EBC001DFF8B80010EBBE
:100DD0004100006880B27047DFF8A010096889B24E
:100DE000C0B211EBC001DFF8A00010EB41000068B9
:100DF00080B27047DFF88420126892B2C0B212EB62
:100E0000C002DFF8880010EB420089B20160704731
:100E1000DFF86820126892B2C0B212EBC002DFF8AD
:100E2000700010EB42000A0092B23F2A0CDB0A006D
:100E300092B2520911F01F0F00D1521E92B29202CB
:100E400052F40042026008E00A0092B25208C90758
:100E500000D5521C92B2920202607047DFF81C105B
:100E6000096889B2C0B211EBC001DFF8240010EBB1
:100E7000410000688005800D70470000505C004014
:100E8000005C0040006000400860004004600040DA
:100E90000C6000400100080089B2C0B2000250EAB4
:100EA000112080B2704730B4002513E050F8042BB5
:100EB000D30744BFA9F101039A18091F042942F876
:100EC000045BFAD213468C0744BF15809B1CC907EC
:100ED00048BF1D7050F8041B0029E7D130BC704793
:100EE00010B492B2521C521089B2114B13EB410351
:100EF00009E00178401C047851EA04211980991C0A
:100F00008B1C401C521E002AF3D110BC704792B2B9
:100F1000521C521089B2064B13EB410305E01968CD
:100F200001801B1D401C401C521E002AF7D1704737
:100F30000060004010B586B001214FF4805000F0F1
:100F40007CFA0121C42000F078FA1020ADF80000EE
:100F500003208DF8020010208DF80300DFF80C4408
:100F60006946200000F096FA2020ADF80000182015
:100F70008DF803006946200000F08CFA4020ADF89F
:100F800000006946200000F085FA8020ADF80000DE
:100F90006946200000F07EFA1021200000F0DAFA05
:100FA0000020ADF804004FF48270ADF80600002078
:100FB000ADF808000220ADF80A000120ADF80C00E1
:100FC0004FF40070ADF80E000020ADF810000020C6
:100FD000ADF812000720ADF81400DFF8944301A922
:100FE000200000F0BDFA0121200000F0D8FA00F046
:100FF00092F8DFF88013884201D1002000E0012040
:1010000006B010BD38B5040000F0DBF800F0E7F8DA
:10101000DFF858531021280000F09FFA202000F03C
:101020009DF82000000CC0B200F098F82000000AE3
:10103000C0B200F093F82000C0B200F08FF8102189
:10104000280000F087FA00F0CAF831BDF8B50400B6
:101050000D00160000F0B5F8DFF81073102138000D
:1010600000F07BFA022000F079F82800000CC0B2F2
:1010700000F074F82800000AC0B200F06FF82800F1
:10108000C0B200F06BF8300080B240F2011188422B
:101090000ADB4FF48076DFF8E00200F09BFA03E011
:1010A000207800F05BF8641C3000461E80B20028F7
:1010B000F6D11021380000F04DFA00F090F8F1BDA3
:1010C000F8B504000D001600DFF8A07210213800FA
:1010D00000F043FA032000F041F82800000CC0B2F1
:1010E00000F03CF82800000AC0B200F037F82800F1
:1010F000C0B200F033F804E0FF2000F02FF82070B9
:10110000641C3000461E80B20028F5D11021380042
:1011100000F020FAF1BDF8B50020002000200020EA
:10112000924F1021380000F018FA9F2000F016F8B6
:10113000FF2000F013F80500FF2000F00FF8040076
:10114000FF2000F00BF806001021380000F002FA32
:10115000240254EA054434432000F2BDF8B50400EB
:10116000864D4FF480562E60814F0221380000F0EA
:1011700028FA002809D12868411E29600028F3D1E7
:10118000002000F041F8C0B21AE0E4B2210089B2B8
:10119000380000F012FA2E600121380000F011FA38
:1011A000002809D12868411E29600028F4D10120B7
:1011B00000F02AF8C0B203E0380000F000FAC0B234
:1011C000F2BD10B5694C1021200000F0C6F90620D0
:1011D000FFF7C4FF1021200000F0BCF910BD10B5CE
:1011E0000020624C1021200000F0B7F90520FFF725
:1011F000B5FFFF20FFF7B2FFC0B2C007F9D410213E
:10120000200000F0A7F910BD80B50100C9B25C480C
:1012100000F0E0F9002002BDF8B504000D00160052
:1012200015F0FF07D7F580773800310080B289B21A
:10123000884203D3370001E04FF480773A0092B23E
:1012400029002000FFF702FF3000390080B289B288
:1012500088420ED0380080B20444380080B245196C
:10126000F61B300080B240F201118842E4DA370008
:10127000E4E7F1BD2DE9F04704000D001600414FF1
:10128000A8465FEA1838A9465FEA09595FEA195982
:10129000D9F5805A5046310080B289B2884203D3D2
:1012A000B24601E04FF4805A4FF480524FF480511F
:1012B00001FB08F13800FFF703FF002100E0491CA3
:1012C0000800524680B292B2904207D24A4692B289
:1012D000080080B28218B85CFF28F0D0504689B26E
:1012E00080B281421FD25FEA0830FFF78BFE0021F7
:1012F00009E0080080B2225C0B009BB2484680B235
:10130000C318FA54491C0800524680B292B2904267
:10131000EFD34FF480524FF4805101FB08F13800B5
:10132000FFF77AFF05E0524692B229002000FFF74E
:1013300073FF3000514680B289B2884201D1BDE8C6
:10134000F08718F101085FF00009504680B20444AC
:10135000504680B24519B6EB0A06300080B241F221
:10136000010188429EDAB2469EE700000008014073
:10137000003001401840EF00E42C0008000000207D
:10138000182D0008B80100203B490860704710B4D0
:101390000021002100210021364A116811F00C01C2
:1013A000002904D0042905D0082906D01EE03349BD
:1013B00001601DE0314901601AE0136813F47013F5
:1013C000116811F480319B0C9B1C002903D12C491E
:1013D0004B43036009E01168890303D528494B4357
:1013E000036002E025494B43036001E023490160AB
:1013F000116811F0F0010909224B595C0468CC40D6
:101400004460116811F4E061090A595C4468CC40F9
:101410008460116811F46051C90A595C4368CB407B
:10142000C360116811F44041890B174A515CC268CE
:10143000B2FBF1F1016110BC7047C9B2002904D0C0
:1014400012490A681043086004E010490A6832EA49
:10145000000008607047C9B2002904D00C490A682E
:101460001043086004E00A490A6832EA0000086094
:101470007047000004100240D800424200127A0077
:1014800000093D007800002088000020181002406C
:101490001C100240F0B40022002200220022002290
:1014A0000022CB7813F00F03CA78D20601D58A78D0
:1014B00013430A78120620D0066800241AE0CA787E
:1014C000482A16D1A740076113E0012717FA04F54F
:1014D0000A882A40AA420CD1A2000F259540AE43AB
:1014E00013FA02F232431600CA78282AE7D1A7403D
:1014F0004761641C082CE8D306600A88B2F5807F37
:1015000026DB4668002420E0012714F1080517FABD
:1015100005F50A882A40AA4216D1A2000F25954057
:10152000AE4313FA02F232431600CA78282A04D1D5
:1015300014F1080217FA02F24261CA78482A03D16C
:1015400014F1080297400761641C082CDCD3466044
:10155000F0BC704789B20161704789B24161704740
:1015600010B40022038813F441530C884A881443B2
:101570008A881443CA8814430A8914434A89144345
:101580008A891443CA89144323430380838B4FF20F
:10159000FF7213408383098A018210BC7047C9B26D
:1015A000002904D0018851F04001018004E0028844
:1015B0004FF6BF710A400280704781817047808971
:1015C000704700220089084201D0012000E000207D
:1015D000C0B270470EB4C0B5024603A80021019006
:1015E000009101AB0121044878440C3000F012F85E
:1015F00006BC5DF810FB00BFA518000070B50546DD
:101600001C000846164604D016F8011BA847641EA5
:10161000FAD170BD2DE9FC4383B081468846174658
:101620001D4607E001233A4641464846FFF7E6FFDC
:1016300080467F1C3878E0B12528F3D17978BF1C2B
:10164000252912D058295AD0632915D0642918BFEA
:10165000692918D06F2952D0702956D073295BD0D0
:10166000752918BF78294AD0E4E74046C847804624
:10167000E0E705B0BDE8F0832868286050F8041B57
:101680002860C9B2F1E72868286050F8046B286028
:10169000002E03D52D214046C847804664216F297E
:1016A00008BF082205D041F02000782814BF0A2284
:1016B00010220B246429304602D1002E48BF40423C
:1016C000B0FBF2FC02FB1C003030641EC3B23A2BAC
:1016D000A4BFA1F1510630180DF804005FEA0C0018
:1016E00001D0002CECDC0DEB0406D4F10B044046D9
:1016F000BDD016F8011BC847641EFAD1B7E72868A9
:10170000286050F8046B2860C9E7286828607821B1
:1017100050F8046B2860C2E72868286050F8046B12
:101720002860304600F00AF8040040469FD016F8C2
:10173000011BC847641EFAD199E7000000F10103BC
:10174000810704D010F8011B820781B1FAD1026829
:10175000A2F10131914311F0803104BF50F8042F00
:10176000F6E709BAB1FA81F100EBD100401CC01ACA
:101770007047000080B5DFF8C4130A7CD20703D598
:10178000DFF8BC0305210DE0C0B2002802D1DFF86C
:10179000B40301E0DFF8B003CA7C252A01DAC97C72
:1017A00000E0242189B200F05EFB01BD10B5040009
:1017B0002000C0B200F0F0FB00280ED03A22022137
:1017C000DFF87803407B00F0A1F80121012000F050
:1017D00061FB002000F08AFB2FE0DFF87003DFF8E8
:1017E00070132200D2B251F82220120E0271220090
:1017F000D2B251F82220120C42712200D2B251F81A
:101800002220120A82712200D2B251F82210C17134
:10181000DFF840132200D2B251F82220120C42729B
:101820002200D2B251F82220120A8272E4B251F898
:101830002410C1720C2100F016FB10BD10B504007D
:101840002000C0B200F0A8FB00280DD03A220221EF
:10185000BA48407B00F05AF80121012000F01AFB41
:10186000002000F043FB36E0BB48B9492200D2B269
:1018700051F82220521E120E02702200D2B251F8EC
:101880002220521E120C42702200D2B251F82220A5
:10189000521E120A82702200D2B251F82210491E42
:1018A000C170AC492200D2B251F82220120E02714E
:1018B0002200D2B251F82220120C42712200D2B280
:1018C00051F82220120A8271E4B251F82410C17139
:1018D000082100F0C8FA10BD80B504219F4800F02F
:1018E000C2FA01BD80B508219D4800F0BCFA01BDD7
:1018F00080B59248C17C132901DAC17C00E0122135
:10190000C9B289B2974800F0AEFA01BD954881701E
:101910000273704780B50121002000F0BBFA01BDC1
:101920002DE9F04104000D0016008F4F3878002893
:1019300025D1DFF8088233002A00282198F80D000D
:1019400000F0BBF8002823D098F80C00000608D55A
:1019500002203870320029002000C0B200F044FBA1
:101960000CE0022000F0C2FA2422052198F80D00B4
:10197000FFF7CCFF0121012000F08CFA08E0387855
:10198000022805D1320029002000C0B200F02CFB53
:10199000BDE8F08138B51300734C2278002A1FD1BE
:1019A000664D0A002A21687B00F087F800281ED0C7
:1019B000287B000607D4012020704FF440510220FC
:1019C000FFF768F90BE0002000F090FA24220521CF
:1019D000687BFFF79BFF0021012000F05BFA06E027
:1019E0002278012A03D11A00C0B200F06FFB31BD8A
:1019F00010B5524CA068002807D1207C400704D4C1
:101A00000121002000F046FA0BE0022000F06EFAFF
:101A100024220521607BFFF779FF0021012000F0DF
:101A200039FA10BD80B5C0B200F0B6FA00280DD06A
:101A30003A2202214148407BFFF768FF0121012043
:101A400000F028FA002000F051FA03E00121002004
:101A500000F020FA01BD80B5C0B200F09DFA002868
:101A60000DD03A2202213548407BFFF74FFF01217C
:101A7000012000F00FFA002000F038FAFFE701BD66
:101A800010B52E4CA068002803D1002000F02EFADB
:101A900009E0207B000603D5002000F027FA02E0D1
:101AA000022000F023FA20220521607BFFF72EFFA1
:101AB0000021012000F0EEF910BD38B504002448E3
:101AC0002500EDB250F825009A18904214D2C9B200
:101AD0002A2902D1022000F009FA002000F006FABB
:101AE000212205212000C0B2FFF710FF00210120B4
:101AF00000F0D0F900201EE0104DAA681548E4B2AD
:101B000050F8240043439A4214D0C9B22A2903D181
:101B1000022000F0EBF902E0002000F0E7F92422B7
:101B20000521687BFFF7F2FE0021012000F0B2F9E9
:101B3000002000E0012032BD00000000481A002013
:101B4000AC1A002004000020280000206C000020B7
:101B5000A41A00209C1A0020B41A00204C00002077
:101B600050000020580000200D1B002080B5DFF839
:101B70005403017802290DD025D3042902D018D3AB
:101B8000052920D1002101704FF440510220FFF7B8
:101B900081F818E0DFF83003C17B282908D1DFF88D
:101BA0002C130A68DFF828130968407BFFF7B8FE9A
:101BB00009E00121002000F06DF94FF440510220AE
:101BC000FFF768F8FFE701BD38B5DFF8FC52EC7BA2
:101BD000DFF80013022000F037FBDFF8FC1208806A
:101BE000B8480078002802D0012803D01AE000F09D
:101BF00026F823E0E4B22A2C07D1B4480268B4489E
:101C00000168687BFFF7C6FE18E0012000F06EF95E
:101C100024220521687BFFF779FE0021022000F0D5
:101C200039F90BE0022000F061F924220521687BDC
:101C3000FFF76CFE0021022000F02CF931BD10B539
:101C4000002004E0A349095C9F4A1154401CA249AA
:101C50000A889042F6D3A1489B4C62684260A26811
:101C6000826008881F280ED0022000F03FF9002073
:101C700020601A220521607BFFF748FE0021012029
:101C800000F008F9EEE0E07B282802D0E07B2A286B
:101C900011D1607CA17C090451EA0061E07C51EA29
:101CA0000021207D01438A480160A07DE17D51EA49
:101CB00000218648016020688949884240F0C6803A
:101CC00088480068617B884205D3A07B002802D049
:101CD000A07B11280CDB022000F008F9242205214A
:101CE000607BFFF713FE0021012000F0D3F8B9E07C
:101CF000E07B002851D003282FD0042865D0082885
:101D000073D00A2800F0818012282AD0152864D0C8
:101D10001A2832D01B2828D01D2862D01E2828D08F
:101D2000232832D0252834D028283AD02A2840D059
:101D30002F2846D055284CD05A2822D088285CD04D
:101D40008A286AD08F2870D09E285AD0A82850D0D0
:101D5000AA285ED0AF2864D06BE0607BFFF7C8FD97
:101D600080E0607BFFF706FD7CE0607BFFF7D2FD43
:101D700078E0607BFFF7CEFD74E0607BFFF7ACFDA1
:101D800070E0607BFFF7AEFD6CE0607BFFF70EFD5F
:101D900068E0607BFFF752FD64E0607BFFF742FE86
:101DA00060E04A4802684A480168607BFFF7B8FD76
:101DB00058E04648026846480168607BFFF7EAFD44
:101DC00050E0607BFFF714FE4CE0607BFFF743FEC2
:101DD00048E0607BFFF754FE44E0607BFFF750FE75
:101DE00040E0607BFFF74CFE3CE0607BFFF748FE85
:101DF00038E0607BFFF744FE34E0607BFFF740FE95
:101E000030E0607BFFF73CFE2CE0607BFFF738FEA4
:101E100028E0607BFFF734FE24E0607BFFF730FEB4
:101E200020E0607BFFF72CFE1CE0607BFFF728FEC4
:101E300018E0022000F05AF820220521607BFFF70D
:101E400065FD0021012000F025F80BE0022000F0E4
:101E50004DF820220521607BFFF758FD002101206D
:101E600000F018F810BD10B50C00220092B201006D
:101E7000812000F0D1F930210120FEF7EFFE032090
:101E80001049087015488168A4B20C1B84600021B9
:101E9000017310BD10B50C001049134A0A60087395
:101EA0000D22812000F0B8F9064805210170E4B246
:101EB000002C05D00421017030210120FEF7CEFE58
:101EC00010BD00000D1B0020481A0020E81A002059
:101ED000E41A0020081A0020001B0020841A0020A9
:101EE00055534243F81A00205553425380B5C0B2AF
:101EF000002803D002280CD005D314E010210120C3
:101F0000FEF7ACFE0FE04FF480510220FEF7C2FE58
:101F100009E010210120FEF7A1FE4FF480510220BC
:101F2000FEF7B8FEFFE701BD10B50024C0B20028DF
:101F300014D1FEF7FFFFFFF7EEF825490860FFF721
:101F4000EAF82449884203D100202349086002E0CE
:101F5000012021490860200080B200E0012010BD6E
:101F600010B514001A00C0B2002805D192B22000AA
:101F7000FFF780F9002000E0012010BD10B514002B
:101F80001A00C0B2002805D192B22000FFF798F8DD
:101F9000002000E0012010BD80B5C0B2002815D19E
:101FA000FEF7C8FFFFF7B7F80A4988420ED10B4881
:101FB0004FF4007101600A494FF400420A60026860
:101FC0000868424307480260002000E0012002BD8B
:101FD000C01A00201840EF00BC1A00209C1A0020F4
:101FE000A41A0020941A00202DE9F0410500724C3B
:101FF0002078002810D1714B2800C0B253F820007F
:1020000041436F4801602800C0B253F820004243AA
:102010006C480260012020702078012842D16A4E6D
:10202000306800281CD1DFF8A481644F2800C0B2BA
:1020300057F820309BB24246614801682800C0B280
:10204000FFF79CFF40224146812000F0E5F8EDB209
:1020500057F825004038306040205D4908600DE0A9
:102060005B4D4022594829680144812000F0D4F892
:1020700030684038306028684030286040210120B6
:10208000FEF7B8FE30210120FEF7E8FD4C4801685C
:10209000403101604B480168403901604D4881681A
:1020A000403981604748006800280DD1002046492A
:1020B000086000204649086000204149086003206C
:1020C0004549087000202070BDE8F081F8B50B008C
:1020D000424C26684036384D2978002910D1374FB8
:1020E0000100C9B257F821104B433D490B60010074
:1020F000C9B257F821104A433A490A6001212970B0
:102100002978012946D1384900220A600BE0374A74
:102110000B68D25C2D4B2768DA550A68521C0A609E
:102120002268521C22602268B242F0D3304F2C4EFB
:10213000326839888A1832602A4A136839885B1AEB
:102140001360DFF878C00100C9B25CF82110136891
:102150001268B2FBF1F201FB1231002910D100210B
:1021600021600100C9B25CF821309BB2174A316886
:102170000600F6B25CF82660891BC0B2FFF7F0FEDD
:1021800014498A683888121A8A604FF44051022034
:10219000FEF780FD13480068002803D00E48007841
:1021A000042807D10020206001210020FFF772FEE3
:1021B00000202870F1BD00000C1B00209C1A00209C
:1021C000D41A0020D81A0020C41A0020B811002008
:1021D000C81A0020841A00200D1B0020CC1A0020F1
:1021E000DC1A0020E01A0020D01A0020081A002073
:1021F000001B002000200549086005484FF40441F9
:10220000018000880349086000207047445C00405A
:10221000041B0020405C004070B504000D00160057
:1022200014F07F00FEF7CAFD0100320092B289B2BD
:102230002800FEF755FE310089B214F07F0420001B
:10224000FEF7D8FD002070BD70B504000D00002021
:1022500014F07F00FEF702FE060014F07F04200059
:10226000FEF7BAFD0100320092B289B22800FEF7F3
:102270004EFE300070BD000080B500F068F900200F
:102280008D490968887200F0ADF9FFF7B3FF0020AF
:102290008A49086001BD10B50020894988728948C3
:1022A000C0798549096848720020FEF7BFFC4FF4E9
:1022B00000710020FEF7C1FC20210020FEF7CEFCBB
:1022C00018210020FEF769FD7F4C94F82C1089B28C
:1022D0000020FEF79DFD58210020FEF74DFD002057
:1022E000FEF70AFD0020FEF7F1FC00210120FEF7B9
:1022F000A4FC98210120FEF73FFD20210120FEF7DC
:10230000ADFC00210120FEF7C5FC00210220FEF7F4
:1023100094FCD8210220FEF740FD94F82C1089B2DD
:102320000220FEF775FD4FF440510220FEF7B2FC8B
:1023300000210220FEF792FC94F82C1089B20020B4
:10234000FEF766FD0020FEF7C1FC0020FEF7E9FB6A
:1023500001205A4908605D485D49086000205D49D8
:10236000087010BD80B554480068807A00280BD0F2
:102370000520524908600120FEF7E7FC0220FEF725
:10238000CDFC00205349087001BD80B5504800685D
:102390004E49884202D00220FFF7A8FD01BD04206B
:1023A0004649086070477047704780B50021424A2F
:1023B0001168097811F07F01212915D1C0B2FE28DA
:1023C00012D11068408800280ED11068808800283B
:1023D0000AD11068C088012806D10FF2C501080093
:1023E000002803D1022009E0022007E01068816183
:1023F00000201268508200208847002002BD80B56E
:102400002D490A68127812F07F02212A1CD1C0B22D
:10241000FF2819D108684088002815D108688088ED
:10242000002811D10868C08800280DD10120FEF7CE
:102430008CFC0220FEF772FC24482549086000202D
:1024400024490870002000E0022002BDC9B2002922
:1024500001D0022005E0C0B2002801D0022000E037
:102460000020704780B51C4980B2FEF73EF802BDDF
:1024700080B51A4980B2FEF738F802BD80B50E4922
:102480000968C9780A00D2B2062A01DB002006E0FA
:10249000134AC9B202EBC10180B2FEF726F802BDB1
:1024A00080B2002805D10120034909680882002074
:1024B00000E00C4870470000EC1A0020FC1A0020D5
:1024C000681A0020342E0008E000002055534243D3
:1024D000481A00200D1B0020340100203C01002080
:1024E00044010020F81A002080B500F076F801BD04
:1024F00080B50020FEF748FF01215FF40000FEF7E1
:10250000AAFF01BD80B54FF4C06000F089F8142027
:102510008DF8000001208DF8010001208DF80200E7
:1025200001208DF80300684600F07FF813208DF835
:10253000000001208DF8010000208DF8020001202C
:102540008DF80300684600F070F801BD704738B59B
:102550000A4800680A490C680A49096808180028EE
:102560000AD0094D0822A91C00F010F8042215F128
:102570001201200000F00AF831BD0000E8F7FF1F4B
:10258000ECF7FF1FF0F7FF1F8C00002030B4002392
:1025900000231AE00400240F37341D00EDB201F8C7
:1025A00015400AE00400240F0A2CF3D20400240F83
:1025B00030341D00EDB201F81540000100241D006B
:1025C000EDB201EB45056C705B1C1C001500E4B21C
:1025D000EDB2AC42E6D330BC704780B50020FFF7C7
:1025E000A3FC01BD80B50120FFF7B0FF0120094920
:1025F00080B2086008480022028002880A60002237
:10260000064B1A604FF4E0520280008808600020F8
:1026100002BD0000405C0040041B0020445C004000
:102620001A4908431A4908607047002100210F2306
:10263000C17800291ED01649096811F4E061D1F56E
:10264000E061090AD1F10402CB40417811FA02F2AB
:1026500081780B401A4312010E490378CA540121B4
:10266000027812F01F0291400B4A0078401142F8A4
:10267000201009E00121027812F01F029140074A60
:102680000078401142F82010704700000000FA0561
:102690000CED00E000E400E000E100E080E100E09B
:1026A0002DE9FC410020ADF800002EE0884D207897
:1026B00055F82000ADF80000BDF8000000040FD56B
:1026C000207855F8201040F68F700140207845F8AA
:1026D00020108048217800EB810050F8040C8047DE
:1026E000BDF80000000610D5207855F8201089B2FA
:1026F00048F60F700140207845F820107648217880
:1027000000EB810050F8040C80477448006874495D
:102710000880000440F19C80724C088810F00F0083
:10272000207020780028C1D16F4C694D2868208026
:102730006E4E208810F030003080208810F4405019
:1027400020804BF6BF77286880B2384090F4005064
:1027500090F0200048F2800880B258EA000028601B
:102760000888C0062DD52868ADF80000BDF8000027
:1027700000054AD4BDF800000004C6D5296840F61B
:102780008F7001402960FEF78EF9286880B20740FB
:102790002088C00401D597F480572088800401D593
:1027A00097F400573088C00601D597F0100730889D
:1027B000800601D597F02007BFB258EA07072F60BF
:1027C00046E0296889B248F60F7001402960FEF79B
:1027D0003EF9286880B207402088C00401D597F4EC
:1027E00080572088800401D597F400573088C006B0
:1027F00001D597F010073088800601D597F02007A3
:10280000BFB258EA07072F6022E0296840F68F70B0
:1028100001402960FEF7D9F8286880B20740208877
:10282000C00401D597F480572088800401D597F41F
:1028300000573088C00601D597F010073088800611
:1028400001D597F02007BFB258EA07072F60FFE7CE
:10285000BDE8F38180B500200FE0087852F8203001
:1028600040F68F700340087842F820301948097804
:1028700000EB810050F8040C804718480168184AA2
:102880001180090422D547F6FF71016015491088AF
:1028900010F00F0008700E4A087852F8200080B23D
:1028A0000304DAD40006E8D5087852F820309BB249
:1028B00048F60F700340087842F82030064809783F
:1028C00000EB810050F8040C8047D6E701BD000002
:1028D000005C0040C4000020A8000020445C0040D0
:1028E0000A1B00200F1B0020061B0020081B0020D5
:1028F00080B53D49086850F0010008603B4A136804
:102900003B48034013600B683A4803400B6008687B
:1029100030F480200860106830F4FE0010605FF42E
:102920001F003549086000F001F801BD80B500F0D6
:1029300001F801BD82B000200190002000902A49DA
:10294000086850F480300860086810F40030009087
:102950000198401C01900098002804D101984FF67E
:10296000FF729042F0D10868800302D501200090E8
:1029700001E0002000900098012831D11F48026832
:1029800052F010020260026892089200026002682F
:1029900052F002020260154802680260026802609A
:1029A000026852F480620260026832F47C120260B3
:1029B000026852F4E81202600A6852F080720A60FB
:1029C0000A689201FCD501688908890001600168E4
:1029D00051F002010160016811F00C010829FAD1DF
:1029E00002B07047000000000010024004100240D6
:1029F0000000FFF8FFFFF6FE081002400020024032
:102A000078B585B005000C000020002000200020D3
:102A10000020A08900282E00298A4CF6FF70014072
:102A2000E08801432982A9894EF6F3100140A2886B
:102A300020890243608902431143A981A98A4FF684
:102A4000FF400140A0890143A9826846FEF79FFC30
:102A50001B48864201D1039900E00299A88900042D
:102A600006D51920414320684000B1FBF0F205E093
:102A70001920414320688000B1FBF0F26420B2FBD2
:102A8000F0F109010B001B09642000FB1322A88947
:102A9000000408D5D00032306422B0FBF2F010F010
:102AA0000700014307E0100132306422B0FBF2F06E
:102AB00010F00F000143298106B070BD0000000036
:102AC00000380140C9B2002904D0818951F4005175
:102AD000818104E082894DF6FF710A40828170474E
:102AE000C905C90D8180704700220A0092B2B2F573
:102AF000007F0088084201D0012000E00020C0B221
:102B00007047000018B585B001210420FEF795FC40
:102B100001214FF48040FEF790FC4FF40070ADF8B7
:102B2000000018208DF8030003208DF802001F4CD0
:102B300069462000FEF7AEFC4FF48060ADF800005F
:102B400004208DF8030069462000FEF7A3FC5FF423
:102B5000E13001900020ADF808000020ADF80A0037
:102B60000020ADF80C000020ADF810000C20ADF8EE
:102B70000E000F4C01A92000FFF742FF01212000A9
:102B8000FFF7A0FF06B010BD38B50400084D2100C6
:102B9000C9B289B22800FFF7A3FF80212800FFF700
:102BA000A3FF0028F9D0200032BD0000000801403A
:102BB0000038014001B402E00098401E00900098E7
:102BC0000028F9D101B0704780B5FFF79BFF00F0F6
:102BD00021F8FFF789FCFFF78BFCFFF793FC00F06F
:102BE00041F8084800680528FBD10748FEF7F2FCC9
:102BF0000648016891F0020101600548FFF7DAFF1D
:102C0000F6E70000FC1A0020482D00080C080140DF
:102C1000FFFF0F0038B501211420FEF70EFC022043
:102C2000ADF8000010208DF8030003208DF802009D
:102C30000A4C69462000FEF72DFC0820ADF8000084
:102C4000074D69462800FEF725FC02212000FEF70B
:102C500081FC08212800FEF77DFC31BD0008014001
:102C60000010014080B50848084901600221006851
:102C700001720748074901600749084A1160006866
:102C80000068804701BD00BFEC1A0020681A0020D0
:102C9000F01A0020E000002010010020F41A0020AB
:102CA00070B50C4D0C4C206828800C4E298830885B
:102CB0000140080401D5FFF7F3FC29883088014062
:102CC000480505D54FF6FF3020600548406880472D
:102CD00070BD00BF0A1B0020445C0040041B0020A4
:102CE000E00000203C3C2D464C4153482D455252BB
:102CF0004F522D3E3E205350495F464C4153485F52
:102D000050616765577269746520746F6F206C61DC
:102D1000726765210A0000003C3C2D464C41534837
:102D20002D4552524F522D3E3E2053504920B5C89A
:102D3000B4FDB3ACCAB1216572726F72436F646542
:102D4000203D2025640A00000D0A20D2B0BBF020EF
:102D5000463130332D4D494E492053544D333220A6
:102D6000555342204D4153532053544F52414745F0
:102D700020CAB5D1E90D0A002603530054004D00C6
:102D80006900630072006F0065006C0065006300FD
:102D9000740072006F006E00690063007300000031
:102DA0002603530054004D003300320020004D0034
:102DB0006100730073002000530074006F00720004
:102DC000610067006500000010B5074979441831BB
:102DD000064C7C44163404E00A68081D11448847F8
:102DE0000146A142F8D110BD2C00000048000000AF
:102DF0007047FEE7FEE7FEE7FEE770477047704763
:102E0000704780B5FFF74CFF01BD80B5FFF722FD8D
:102E100001BD000093E0FFFF58190000B801002039
:102E2000000000008FDDFFFF00020000F60100003F
:102E30000000002009022000010100C03209040046
:102E40000002080650040705810240000007050241
:102E50000240000000F00DF8002801D0FFF7B4FF99
:102E6000AFF300800020AFF30080FFF7ADFE00F06D
:102E700002F80120704700F001B80000074638460C
:102E800000F002F8FBE7000080B5AFF30080024AD3
:102E900011001820ABBEFBE72600020038B504463F
:102EA0000D46284600F006F8A84218BF0024204628
:102EB00032BD00000149FFF767BE00BF6C01002072
:102EC00012010002000000408304205700020102AA
:102ED0000301000010035300540020004D00610066
:102EE000730073000148804701480047F12800083B
:102EF000052F000880B5FEF739FE01BD80B5FEF74D
:102F000063FE01BDAFF30080AFF30080FFF7A2FFC7
:102F100004030904FFF76CBFFFF76BBFFFF76ABF3D
:102F2000FFF769BFFFF768BFFFF767BFFFF766BF2F
:102F3000FFF765BFFFF764BFFFF7FEBFFFF7FEBFF8
:102F4000FFF7FEBFFFF7FEBFFFF7FEBFFFF7FEBFB5
:102F5000FFF7FEBFFFF7FEBFFFF7FEBFFFF7FEBFA5
:102F6000FFF7FEBFFFF7FEBFFFF7FEBFFFF7FEBF95
:102F7000FFF7FEBFFFF7FEBFFFF7FEBFFFF7FEBF85
:102F8000FFF7FEBFFFF741BFFFF73BBFFFF7FEBFF5
:102F9000FFF7FEBFFFF7FEBFFFF7FEBFFFF7FEBF65
:102FA000FFF7FEBFFFF7FEBFFFF7FEBFFFF7FEBF55
:102FB000FFF7FEBFFFF7FEBFFFF7FEBFFFF7FEBF45
:102FC000FFF7FEBFFFF7FEBFFFF7FEBFFFF7FEBF35
:102FD000FFF7FEBFFFF7FEBFFFF7FEBFFFF7FEBF25
:102FE000FFF7FEBFFFF7FEBFFFF7FEBFFFF7FEBF15
:102FF000FFF7FEBFFFF7FEBFFFF7FEBFFFF7FEBF05
:10300000FFF7FEBFFFF7FEBFFFF7FEBFFFF7FEBFF4
:10301000FFF7FEBFFFF7FEBFFFF7FEBFFFF7FEBFE4
:10302000FFF7FEBFFFF7FEBF100700A00000008003
:1030300002022007200253544D2001100B5344205C
:10304000466C617368204469736B12E002312E3064
:103050002024B0014E414E262124130300013306E3
:103060000001427007C30A00012208105202152015
:10307000020102030404B015060708090204060849
:103080001A03530054004D00330032003100303B2E
:10309000F00409F52E0008B10B04F206FD20100320
:1030A0007922000897041003A7230008A90412AB93
:1030B0000412FF0410034D24000865041271044338
:1030C0007D24981240052134C3652344928B10124D
:1030D0009F0C12C06C12122C12340825141003100D
:1030E0002F000804081003782D0008260852A008B5
:1030F00010038C0000201A0812D428121008200A8D
:1031000002040101B8190020081A00200821042136
:10311000786108F0070EB00100209C01002000013A
:03312000030301A5
:0400000508002F05BB
:00000001FF
